:0C0BDC00020A0000021F000002080000D6
:100BCA00C284120B51120AB67F80120B9E120800C1
:020BDA0080F6A3
:100B51007F647E00120B1B7F38120B9E7F0E120BDF
:0B0B61009E7F01120B9E7F80020B9E06
:100B9E008F27120B6C8527A0C280120B13C2827F87
:060BAE00057E00020B1B96
:100BB4008F2B120B6C852BA0D280120B13C2827F59
:060BC400057E00020B1B80
:100AE7008B278A2889298D2AE52AD39400401CABB5
:100AF70027AA28A9291208D8FF120BB4740125299F
:0C0B0700F529E43528F528152A80DD22A8
:100B6C0075A0FFC280D281C282120B17D28230A72D
:0A0B7C0006C282D28280F7C28222F4
:080B1300C281D2827F057E0041
:100B1B00D3EF9400EE64809480400DE4FD0DBD0591
:080B2B00FCEF1F70EB1E80E8D7
:010B3300229F
:1008000075250075260175B07FE5B0647F600875B9
:100810001F00752001803175B0BFE5B064BF60086E
:10082000751F00752002802075B0DFE5B064DF60C1
:1008300008751F00752003800F75B0EFE5B064EFF9
:10084000600B751F00752004120A768005E4F525FB
:10085000F526E526640145257077E50D450C707198
:100860000509E50970020508E52025E025E02409D1
:10087000250BF8E6F51EFF120A08AE08AF097C004A
:100880007D0A1208F1ED2430F524AE08AF097C0092
:100890007D0A1208F17C007D0A1208F1ED2430F582
:1008A00023AE08AF097C007D641208F17C007D0A4C
:1008B0001208F1ED2430F52275215F7B007A007972
:1008C0001E7D01120AE77B007A0079217D04120A5D
:0808D000E785250C85260D22A9
:100A760075B0F7E5B064F76007750A00750B0122DB
:100A860075B0FBE5B064FB6007750A00750B0222C2
:100A960075B0FDE5B064FD6007750A00750B0322AD
:100AA60075B0FEE5B064FE6006750A00750B04229B
:100AB600750E31750F327510337511417512347517
:100AC600133575143675154275163775173875183A
:100AD60039751943751A2A751B30751C23751D4403
:010AE60022ED
:100A0800EF3395E0AB07FAE4F527F5287C007D0283
:100A1800AF03AE021208F1E52825E02429F8A60460
:100A280008A6057C007D02AF03AE021208F1AA06F3
:100A3800AB070528E528700205276408452770CC10
:100A4800753900753A01E4F527F528E52825E024ED
:100A580029F8E6FE08E6FF120B340528E52870029F
:0D0A68000527C39408E5276480948040DED4
:010A7500225E
:100B8600758910EF4E6008758CFE758A0C800675A7
:080B96008CFC758A18D28C2238
:100B3400AD07AC06120B86308DFDC28DD284AF0595
:0D0B4400AE04120B86308DFDC28DC28422DE
:0300000002097C76
:0C097C00787FE4F6D8FD75813A0209C3CB
:1008D800BB010689828A83E0225002E722BBFE021E
:0908E800E32289828A83E4932251
:1008F100C2D5EC30E709B2D5E4C39DFDE49CFCEE22
:1009010030E715B2D5E4C39FFFE49EFE120927C369
:10091100E49DFDE49CFC800312092730D507C3E464
:060921009FFFE49EFE2290
:10098800020BCAE493A3F8E493A34003F68001F2B0
:1009980008DFF48029E493A3F85407240CC8C33370
:1009A800C4540F4420C8834004F456800146F6DF3F
:1009B800E4800B0102040810204080900BDCE47EE8
:1009C800019360BCA3FF543F30E509541FFEE49334
:1009D800A360010ECF54C025E060A840B8E493A3FB
:1009E800FAE493A3F8E493A3C8C582C8CAC583CA26
:1009F800F0A3C8C582C8CAC583CADFE9DEE780BEDE
:010BE800000C
:10092700BC000BBE0029EF8DF084FFADF022E4CCB4
:10093700F875F008EF2FFFEE33FEEC33FCEE9DEC7D
:10094700984005FCEE9DFE0FD5F0E9E4CEFD22EDC3
:10095700F8F5F0EE8420D21CFEADF075F008EF2F0D
:10096700FFED33FD4007985006D5F0F222C398FDFE
:050977000FD5F0EA229B
:00000001FF
