:10095500021A0000020803000A0E2D2D2D2D2D2D43
:100965002D2D2D2D020A0001021C00000218000089
:04097500020C000070
:03000300020800F0
:10080000C0E0C0D075D000C000C004C005C006C0A4
:1008100007E50B450A7048C28CAF8CEFFEAD8A7CB1
:1008200000E42DF51BEC3EF51AC3E51B9509E50820
:100830006480F8E51A648098E50D501225E0FFE524
:100840000C33FEEF2401F50DE43EF50C800925E0A4
:10085000F50DE50C33F50C051DE51D7002051C7545
:100860008C00758A00D28C750A00750B00751C000F
:10087000751D08740E2519F8A60D750A00750B0173
:100880000519E51970020518751C00751D00D007C3
:0D089000D006D005D004D000D0D0D0E0328A
:10099B001209B6120A30120A397F80120A047B0040
:0B09AB007A00790E7D0A12092980EE07
:1009B6007F647E001209827F38120A047F0E120AB3
:0B09C600047F01120A047F80020A0473
:100A04008F1E1209D1851EA0C28012097AC2827F6C
:060A1400057E00020982CC
:100A1A008F221209D18522A0D28012097AC2827F3E
:060A2A00057E00020982B6
:100929008B1E8A1F89208D21E521D39400401CABA1
:100939001EAA1FA9201209EBFF120A1A7401252009
:0C094900F520E4351FF51F152180DD228C
:1009D10075A0FFC280D281C28212097ED28230A765
:0A09E10006C282D28280F7C2822291
:08097A00C281D2827F057E00DC
:10098200D3EF9400EE64809480400DE4FD0DBD052C
:08099200FCEF1F70EB1E80E872
:01099A00223A
:090A3000758901E4F58CF58A22B8
:070A3900D2AFD2A8D288223F
:0300000002089D56
:0C089D00787FE4F6D8FD7581220208E4A3
:1009EB00BB010689828A83E0225002E722BBFE020A
:0909FB00E32289828A83E493223D
:1008A90002099BE493A3F8E493A34003F68001F2C1
:1008B90008DFF48029E493A3F85407240CC8C33350
:1008C900C4540F4420C8834004F456800146F6DF1F
:1008D900E4800B0102040810204080900955E47E51
:1008E900019360BCA3FF543F30E509541FFEE49314
:1008F900A360010ECF54C025E060A840B8E493A3DB
:10090900FAE493A3F8E493A3C8C582C8CAC583CA05
:10091900F0A3C8C582C8CAC583CADFE9DEE780BEBD
:01097900007D
:00000001FF
