:100AE200021E0000020A03000A102D2D2D2D2D2DAD
:100AF2002D2D2D2D020C00010232000002300000CB
:100B0200021A0000020E000002080000021C00018E
:03000300020800F0
:10080000C0E0C0F0C083C082C0D075D000C000C0BE
:1008100001C002C003C004C005C006C007C28CAE40
:1008200008AF09EE3395E0FDFCE4FBFA7901F8121C
:10083000097AAD07AC06AF8CEFFEAB8A7A00E42BE9
:10084000FFEA3ECF2DF51FEF3CF51ED3E51F9400C8
:10085000E51E648094805003020905E51F94FCE5C1
:100860001E648094884003020905E51F94B0E51ECC
:1008700064809484402974102533F87630E51D4552
:100880001C606EE53125E02420F87600087600052E
:1008900031E531700205306408453070548043C33F
:1008A000E51F94BCE51E64809482500F74102533BC
:1008B000F87632751C00751D01803674102533F8EA
:1008C0007631E51D451C6029E53125E02420F876C8
:1008D000000876010531E5317002053064084530C5
:1008E000700F120AAA751C00751D00753000753155
:1008F00000E5332401FFE43532FE7C007D09120956
:10090000448C328D33120BFB750800750900D28CB4
:10091000D007D006D005D004D003D002D001D0003B
:0B092000D0D0D082D083D0F0D0E032E5
:03000B00020BDC09
:0D0BDC00C0E00509E50970020508D0E0320F
:100B6000120B7B120BE9120BF27F80120BB07B0091
:0B0B70007A0079107D0A120B1380EE52
:100B7B007F647E00120B477F38120BB07F0E120B77
:0B0B8B00B07F01120BB07F80020BB0A6
:100BB0008F34120B968534A0C280120B3FC2827F05
:060BC000057E00020B4758
:100BC6008F38120B968538A0D280120B3FC2827FD7
:060BD600057E00020B4742
:100B13008B348A3589368D37E537D39400401CAB47
:100B230034AA35A93612092BFF120BC674012536D8
:0C0B3300F536E43535F535153780DD2248
:100B960075A0FFC280D281C282120B43D28230A7D7
:0A0BA60006C282D28280F7C28222CA
:080B3F00C281D2827F057E0015
:100B4700D3EF9400EE64809480400DE4FD0DBD0565
:080B5700FCEF1F70EB1E80E8AB
:010B5F002273
:090BE900758901E4F58CF58A22FE
:060BFB00E4F58CF58A22EE
:090BF200D2AFD2A9D2A8D2882208
:100AAA00E52D75F040A4FFE52F75F080A42FFFE532
:100ABA002BC43354E02FFFE529C454F02FFFE52758
:100ACA0075F008A42FFFE52525E025E02FFFE52393
:080ADA0025E02F2521F519226A
:03000000020A1ED3
:0C0A1E00787FE4F6D8FD758138020A6587
:10092B00BB010689828A83E0225002E722BBFE02CA
:09093B00E32289828A83E49322FD
:10094400C2D5EC30E709B2D5E4C39DFDE49CFCEECE
:1009540030E715B2D5E4C39FFFE49EFE1209C9C374
:10096400E49DFDE49CFC80031209C930D507C3E46F
:060974009FFFE49EFE223D
:10097A00E88FF0A4CC8BF0A42CFCE98EF0A42CFC1C
:10098A008AF0EDA42CFCEA8EF0A4CDA8F08BF0A49A
:10099A002DCC3825F0FDE98FF0A42CCD35F0FCEBF9
:1009AA008EF0A4FEA9F0EB8FF0A4CFC5F02ECD39BE
:0F09BA00FEE43CFCEAA42DCE35F0FDE43CFC222B
:100A2A00020B60E493A3F8E493A34003F68001F277
:100A3A0008DFF48029E493A3F85407240CC8C333CD
:100A4A00C4540F4420C8834004F456800146F6DF9C
:100A5A00E4800B0102040810204080900AE2E47E40
:100A6A00019360BCA3FF543F30E509541FFEE49391
:100A7A00A360010ECF54C025E060A840B8E493A358
:100A8A00FAE493A3F8E493A3C8C582C8CAC583CA83
:100A9A00F0A3C8C582C8CAC583CADFE9DEE780BE3B
:010B120000E2
:1009C900BC000BBE0029EF8DF084FFADF022E4CC12
:1009D900F875F008EF2FFFEE33FEEC33FCEE9DECDB
:1009E900984005FCEE9DFE0FD5F0E9E4CEFD22ED21
:1009F900F8F5F0EE8420D21CFEADF075F008EF2F6B
:100A0900FFED33FD4007985006D5F0F222C398FD5B
:050A19000FD5F0EA22F8
:00000001FF
