:0F0BD900020A000002200000010C410208000087
:100BC700D284120B4E120AB3120800AF0C120A0B92
:020BD70080F6A6
:100B4E007F647E00120B187F38120B9B7F0E120BE8
:0B0B5E009B7F01120B9B7F80020B9B12
:100B9B008F28120B698528A0C280120B10C2827F8E
:060BAB00057E00020B189C
:100BB1008F2C120B69852CA0D280120B10C2827F60
:060BC100057E00020B1886
:100AE4008B288A29892A8D2BE52BD39400401CABB3
:100AF40028AA29A92A1208DBFF120BB17401252A9E
:0C0B0400F52AE43529F529152B80DD22A7
:100B690075A0FFC280D281C282120B14D28230A733
:0A0B790006C282D28280F7C28222F7
:080B1000C281D2827F057E0044
:100B1800D3EF9400EE64809480400DE4FD0DBD0594
:080B2800FCEF1F70EB1E80E8DA
:010B300022A2
:1008000075260075270175B07FE5B0647F600875B7
:100810002000752101803175B0BFE5B064BF60086C
:10082000752000752102802075B0DFE5B064DF60BF
:1008300008752000752103800F75B0EFE5B064EFF7
:10084000600B752000752104120A738005E4F526FB
:10085000F527E52764014526707AE50E450D70748D
:100860000509E509700205087F80120B9BE521252B
:10087000E025E0240A250BF8E6F51FF50CAE08AFDD
:10088000097C007D0A1208F4ED2430F525AE08AF8E
:10089000097C007D0A1208F47C007D0A1208F4ED40
:1008A0002430F524AE08AF097C007D641208F47C86
:1008B000007D0A1208F4ED2430F52375225F7B00D9
:1008C0007A00791F7D01120AE47B007A0079227D8B
:0B08D00004120AE485260D85270E2285
:100A730075B0F7E5B064F76007750A00750B0122DE
:100A830075B0FBE5B064FB6007750A00750B0222C5
:100A930075B0FDE5B064FD6007750A00750B0322B0
:100AA30075B0FEE5B064FE6006750A00750B04229E
:100AB300750F317510327511337512417513347515
:100AC3001435751536751642751737751838751937
:100AD30039751A43751B2A751C30751D23751E4401
:010AE30022F0
:100A0B00EF3395E0AB07FAE4F528F5297C007D027E
:100A1B00AF03AE021208F4E52925E0242AF8A60458
:100A2B0008A6057C007D02AF03AE021208F4AA06ED
:100A3B00AB070529E529700205286408452870CC09
:100A4B00E4F528F529E52925E0242AF8E6FE08E651
:100A5B00FF120B310529E52970020528C39408E51F
:070A6B00286480948040DE46
:010A72002261
:100B8300758910EF4E6008758CFE758A0C800675AA
:080B93008CFC758A18D28C223B
:100B3100AD07AC06120B83308DFDC28DD284AF059B
:0D0B4100AE04120B83308DFDC28DC28422E4
:0300000002097F73
:0C097F00787FE4F6D8FD7581390209C6C6
:1008DB00BB010689828A83E0225002E722BBFE021B
:0908EB00E32289828A83E493224E
:1008F400C2D5EC30E709B2D5E4C39DFDE49CFCEE1F
:1009040030E715B2D5E4C39FFFE49EFE12092AC363
:10091400E49DFDE49CFC800312092A30D507C3E45E
:060924009FFFE49EFE228D
:10098B00020BC7E493A3F8E493A34003F68001F2B0
:10099B0008DFF48029E493A3F85407240CC8C3336D
:1009AB00C4540F4420C8834004F456800146F6DF3C
:1009BB00E4800B0102040810204080900BD9E47EE8
:1009CB00019360BCA3FF543F30E509541FFEE49331
:1009DB00A360010ECF54C025E060A840B8E493A3F8
:1009EB00FAE493A3F8E493A3C8C582C8CAC583CA23
:1009FB00F0A3C8C582C8CAC583CADFE9DEE780BEDB
:010BE800000C
:10092A00BC000BBE0029EF8DF084FFADF022E4CCB1
:10093A00F875F008EF2FFFEE33FEEC33FCEE9DEC7A
:10094A00984005FCEE9DFE0FD5F0E9E4CEFD22EDC0
:10095A00F8F5F0EE8420D21CFEADF075F008EF2F0A
:10096A00FFED33FD4007985006D5F0F222C398FDFB
:05097A000FD5F0EA2298
:00000001FF
