:100B6600020A000002200000010C411426000200C7
:100B7600000000000000000000000000000000006F
:050B860001020800005F
:0D0C2D00D284120BCC120AE112080080FBE9
:100BCC007F647E00120B947F38120C017F0E120C86
:0B0BDC00017F01120C017F80020C0160
:100C01008F3C120BE7853CA0C280120B8CC2827F05
:060C1100057E00020B94B9
:100C17008F40120BE78540A0D280120B8CC2827FD7
:060C2700057E00020B94A3
:100B12008B3C8A3D893E8D3FE53FD39400401CAB20
:100B22003CAA3DA93E1208E3FF120C177401253EB0
:0C0B3200F53EE4353DF53D153F80DD2229
:100BE70075A0FFC280D281C282120B90D28230A739
:0A0BF70006C282D28280F7C2822279
:080B8C00C281D2827F057E00C8
:100B9400D3EF9400EE64809480400DE4FD0DBD0518
:080BA400FCEF1F70EB1E80E85E
:010BAC002226
:10080000753A00753B0175B07FE5B0647F6008758F
:100810002000752101803175B0BFE5B064BF60086C
:10082000752000752102802075B0DFE5B064DF60BF
:1008300008752000752103800F75B0EFE5B064EFF7
:10084000600B752000752104120AA18005E4F53AB9
:10085000F53BE53B6401453A60030208DCE50E45E3
:100860000D70790509E509700205087F80120C01F9
:10087000E52125E025E0240A250BF8E6F51FFF1207
:100880000987851F0CAE08AF097C007D0A1208FCA1
:10089000ED2430F525AE08AF097C007D0A1208FC76
:1008A0007C007D0A1208FCED2430F524AE08AF0967
:1008B0007C007D641208FC7C007D0A1208FCED249B
:1008C00030F52375225F7B007A00791F7D01120BC2
:1008D000127B007A0079227D04120B12853A0D8575
:0308E0003B0E22AA
:100AA10075B0F7E5B064F76007750A00750B0122B0
:100AB10075B0FBE5B064FB6007750A00750B022297
:100AC10075B0FDE5B064FD6007750A00750B032282
:100AD10075B0FEE5B064FE6006750A00750B042270
:100AE100750F3175103275113375124175133475E7
:100AF1001435751536751642751737751838751909
:100B010039751A43751B2A751C30751D23751E44D2
:010B110022C1
:10098700EF3395E0AB07FA753C00753D017C007DC0
:1009970002AF03AE021208FCE53D25E02426F8A6C7
:1009A7000408A6057C007D02AF03AE021208FCAA6C
:1009B70006AB07053DE53D7002053C6409453C7003
:1009C700CCC284758901758CFF758A06D28C308DEF
:1009D700FDC28DD284758901758CFF758A06D28C0C
:1009E700308DFDC28D753C00753D01E53D25E02448
:1009F70026F8E6FE08E6FF120BAD053DE53D700261
:0D0A0700053CC3940AE53C6480948040DE09
:010A140022BF
:100B3E00758901EF64014E7008758CFE758A0C8004
:100B4E0014EF64024E7008758CF8758A3080067545
:080B5E008CFC758A18D28C2270
:100BAD00AD07AC06C284120B3E308DFDC28DD284D2
:0F0BBD00AF05AE04120B3E308DFDC28DC28C22EF
:03000000020A15DC
:0C0A1500787FE4F6D8FD758140020A5C91
:1008E300BB010689828A83E0225002E722BBFE0213
:0908F300E32289828A83E4932246
:1008FC00C2D5EC30E709B2D5E4C39DFDE49CFCEE17
:10090C0030E715B2D5E4C39FFFE49EFE120932C353
:10091C00E49DFDE49CFC800312093230D507C3E44E
:06092C009FFFE49EFE2285
:100A2100020C2DE493A3F8E493A34003F68001F2B2
:100A310008DFF48029E493A3F85407240CC8C333D6
:100A4100C4540F4420C8834004F456800146F6DFA5
:100A5100E4800B0102040810204080900B66E47EC4
:100A6100019360BCA3FF543F30E509541FFEE4939A
:100A7100A360010ECF54C025E060A840B8E493A361
:100A8100FAE493A3F8E493A3C8C582C8CAC583CA8C
:100A9100F0A3C8C582C8CAC583CADFE9DEE780BE44
:010B8B000069
:10093200BC000BBE0029EF8DF084FFADF022E4CCA9
:10094200F875F008EF2FFFEE33FEEC33FCEE9DEC72
:10095200984005FCEE9DFE0FD5F0E9E4CEFD22EDB8
:10096200F8F5F0EE8420D21CFEADF075F008EF2F02
:10097200FFED33FD4007985006D5F0F222C398FDF3
:050982000FD5F0EA2290
:00000001FF
